{
  "_format": "hh-sol-artifact-1",
  "contractName": "NFTMarketplace",
  "sourceName": "contracts/NFTMarketplace.sol",
  "abi": [
    {
      "inputs": [
        {
          "internalType": "address",
          "name": "initialOwner",
          "type": "address"
        }
      ],
      "stateMutability": "nonpayable",
      "type": "constructor"
    },
    {
      "inputs": [],
      "name": "ERC721EnumerableForbiddenBatchMint",
      "type": "error"
    },
    {
      "inputs": [
        {
          "internalType": "address",
          "name": "sender",
          "type": "address"
        },
        {
          "internalType": "uint256",
          "name": "tokenId",
          "type": "uint256"
        },
        {
          "internalType": "address",
          "name": "owner",
          "type": "address"
        }
      ],
      "name": "ERC721IncorrectOwner",
      "type": "error"
    },
    {
      "inputs": [
        {
          "internalType": "address",
          "name": "operator",
          "type": "address"
        },
        {
          "internalType": "uint256",
          "name": "tokenId",
          "type": "uint256"
        }
      ],
      "name": "ERC721InsufficientApproval",
      "type": "error"
    },
    {
      "inputs": [
        {
          "internalType": "address",
          "name": "approver",
          "type": "address"
        }
      ],
      "name": "ERC721InvalidApprover",
      "type": "error"
    },
    {
      "inputs": [
        {
          "internalType": "address",
          "name": "operator",
          "type": "address"
        }
      ],
      "name": "ERC721InvalidOperator",
      "type": "error"
    },
    {
      "inputs": [
        {
          "internalType": "address",
          "name": "owner",
          "type": "address"
        }
      ],
      "name": "ERC721InvalidOwner",
      "type": "error"
    },
    {
      "inputs": [
        {
          "internalType": "address",
          "name": "receiver",
          "type": "address"
        }
      ],
      "name": "ERC721InvalidReceiver",
      "type": "error"
    },
    {
      "inputs": [
        {
          "internalType": "address",
          "name": "sender",
          "type": "address"
        }
      ],
      "name": "ERC721InvalidSender",
      "type": "error"
    },
    {
      "inputs": [
        {
          "internalType": "uint256",
          "name": "tokenId",
          "type": "uint256"
        }
      ],
      "name": "ERC721NonexistentToken",
      "type": "error"
    },
    {
      "inputs": [
        {
          "internalType": "address",
          "name": "owner",
          "type": "address"
        },
        {
          "internalType": "uint256",
          "name": "index",
          "type": "uint256"
        }
      ],
      "name": "ERC721OutOfBoundsIndex",
      "type": "error"
    },
    {
      "inputs": [
        {
          "internalType": "address",
          "name": "owner",
          "type": "address"
        }
      ],
      "name": "OwnableInvalidOwner",
      "type": "error"
    },
    {
      "inputs": [
        {
          "internalType": "address",
          "name": "account",
          "type": "address"
        }
      ],
      "name": "OwnableUnauthorizedAccount",
      "type": "error"
    },
    {
      "anonymous": false,
      "inputs": [
        {
          "indexed": true,
          "internalType": "address",
          "name": "owner",
          "type": "address"
        },
        {
          "indexed": true,
          "internalType": "address",
          "name": "approved",
          "type": "address"
        },
        {
          "indexed": true,
          "internalType": "uint256",
          "name": "tokenId",
          "type": "uint256"
        }
      ],
      "name": "Approval",
      "type": "event"
    },
    {
      "anonymous": false,
      "inputs": [
        {
          "indexed": true,
          "internalType": "address",
          "name": "owner",
          "type": "address"
        },
        {
          "indexed": true,
          "internalType": "address",
          "name": "operator",
          "type": "address"
        },
        {
          "indexed": false,
          "internalType": "bool",
          "name": "approved",
          "type": "bool"
        }
      ],
      "name": "ApprovalForAll",
      "type": "event"
    },
    {
      "anonymous": false,
      "inputs": [
        {
          "indexed": false,
          "internalType": "uint256",
          "name": "_fromTokenId",
          "type": "uint256"
        },
        {
          "indexed": false,
          "internalType": "uint256",
          "name": "_toTokenId",
          "type": "uint256"
        }
      ],
      "name": "BatchMetadataUpdate",
      "type": "event"
    },
    {
      "anonymous": false,
      "inputs": [
        {
          "indexed": false,
          "internalType": "uint256",
          "name": "_tokenId",
          "type": "uint256"
        }
      ],
      "name": "MetadataUpdate",
      "type": "event"
    },
    {
      "anonymous": false,
      "inputs": [
        {
          "indexed": true,
          "internalType": "address",
          "name": "previousOwner",
          "type": "address"
        },
        {
          "indexed": true,
          "internalType": "address",
          "name": "newOwner",
          "type": "address"
        }
      ],
      "name": "OwnershipTransferred",
      "type": "event"
    },
    {
      "anonymous": false,
      "inputs": [
        {
          "indexed": true,
          "internalType": "uint256",
          "name": "tokenId",
          "type": "uint256"
        }
      ],
      "name": "TokenBurned",
      "type": "event"
    },
    {
      "anonymous": false,
      "inputs": [
        {
          "indexed": true,
          "internalType": "uint256",
          "name": "tokenId",
          "type": "uint256"
        },
        {
          "indexed": false,
          "internalType": "uint256",
          "name": "salePrice",
          "type": "uint256"
        }
      ],
      "name": "TokenListedForSale",
      "type": "event"
    },
    {
      "anonymous": false,
      "inputs": [
        {
          "indexed": true,
          "internalType": "address",
          "name": "recipient",
          "type": "address"
        },
        {
          "indexed": true,
          "internalType": "uint256",
          "name": "tokenId",
          "type": "uint256"
        },
        {
          "indexed": false,
          "internalType": "string",
          "name": "tokenURI",
          "type": "string"
        }
      ],
      "name": "TokenMinted",
      "type": "event"
    },
    {
      "anonymous": false,
      "inputs": [
        {
          "indexed": true,
          "internalType": "uint256",
          "name": "tokenId",
          "type": "uint256"
        }
      ],
      "name": "TokenSaleWithdrawn",
      "type": "event"
    },
    {
      "anonymous": false,
      "inputs": [
        {
          "indexed": true,
          "internalType": "uint256",
          "name": "tokenId",
          "type": "uint256"
        },
        {
          "indexed": false,
          "internalType": "address",
          "name": "buyer",
          "type": "address"
        },
        {
          "indexed": false,
          "internalType": "uint256",
          "name": "salePrice",
          "type": "uint256"
        }
      ],
      "name": "TokenSold",
      "type": "event"
    },
    {
      "anonymous": false,
      "inputs": [
        {
          "indexed": true,
          "internalType": "address",
          "name": "from",
          "type": "address"
        },
        {
          "indexed": true,
          "internalType": "address",
          "name": "to",
          "type": "address"
        },
        {
          "indexed": true,
          "internalType": "uint256",
          "name": "tokenId",
          "type": "uint256"
        }
      ],
      "name": "Transfer",
      "type": "event"
    },
    {
      "inputs": [
        {
          "internalType": "address",
          "name": "to",
          "type": "address"
        },
        {
          "internalType": "uint256",
          "name": "tokenId",
          "type": "uint256"
        }
      ],
      "name": "approve",
      "outputs": [],
      "stateMutability": "nonpayable",
      "type": "function"
    },
    {
      "inputs": [
        {
          "internalType": "address",
          "name": "owner",
          "type": "address"
        }
      ],
      "name": "balanceOf",
      "outputs": [
        {
          "internalType": "uint256",
          "name": "",
          "type": "uint256"
        }
      ],
      "stateMutability": "view",
      "type": "function"
    },
    {
      "inputs": [
        {
          "internalType": "uint256",
          "name": "tokenId",
          "type": "uint256"
        }
      ],
      "name": "burn",
      "outputs": [],
      "stateMutability": "nonpayable",
      "type": "function"
    },
    {
      "inputs": [
        {
          "internalType": "uint256",
          "name": "tokenId",
          "type": "uint256"
        }
      ],
      "name": "buyCredit",
      "outputs": [],
      "stateMutability": "payable",
      "type": "function"
    },
    {
      "inputs": [],
      "name": "getAllListedTokens",
      "outputs": [
        {
          "internalType": "uint256[]",
          "name": "",
          "type": "uint256[]"
        },
        {
          "internalType": "string[]",
          "name": "",
          "type": "string[]"
        },
        {
          "internalType": "uint256[]",
          "name": "",
          "type": "uint256[]"
        }
      ],
      "stateMutability": "view",
      "type": "function"
    },
    {
      "inputs": [
        {
          "internalType": "uint256",
          "name": "tokenId",
          "type": "uint256"
        }
      ],
      "name": "getApproved",
      "outputs": [
        {
          "internalType": "address",
          "name": "",
          "type": "address"
        }
      ],
      "stateMutability": "view",
      "type": "function"
    },
    {
      "inputs": [
        {
          "internalType": "uint256",
          "name": "tokenId",
          "type": "uint256"
        }
      ],
      "name": "getTokenSalePrice",
      "outputs": [
        {
          "internalType": "uint256",
          "name": "",
          "type": "uint256"
        }
      ],
      "stateMutability": "view",
      "type": "function"
    },
    {
      "inputs": [
        {
          "internalType": "address",
          "name": "owner",
          "type": "address"
        },
        {
          "internalType": "address",
          "name": "operator",
          "type": "address"
        }
      ],
      "name": "isApprovedForAll",
      "outputs": [
        {
          "internalType": "bool",
          "name": "",
          "type": "bool"
        }
      ],
      "stateMutability": "view",
      "type": "function"
    },
    {
      "inputs": [],
      "name": "name",
      "outputs": [
        {
          "internalType": "string",
          "name": "",
          "type": "string"
        }
      ],
      "stateMutability": "view",
      "type": "function"
    },
    {
      "inputs": [],
      "name": "owner",
      "outputs": [
        {
          "internalType": "address",
          "name": "",
          "type": "address"
        }
      ],
      "stateMutability": "view",
      "type": "function"
    },
    {
      "inputs": [
        {
          "internalType": "uint256",
          "name": "tokenId",
          "type": "uint256"
        }
      ],
      "name": "ownerOf",
      "outputs": [
        {
          "internalType": "address",
          "name": "",
          "type": "address"
        }
      ],
      "stateMutability": "view",
      "type": "function"
    },
    {
      "inputs": [
        {
          "internalType": "uint256",
          "name": "tokenId",
          "type": "uint256"
        },
        {
          "internalType": "uint256",
          "name": "salePrice",
          "type": "uint256"
        }
      ],
      "name": "putTokenForSale",
      "outputs": [],
      "stateMutability": "nonpayable",
      "type": "function"
    },
    {
      "inputs": [
        {
          "internalType": "uint256",
          "name": "tokenId",
          "type": "uint256"
        }
      ],
      "name": "removeTokenFromSale",
      "outputs": [],
      "stateMutability": "nonpayable",
      "type": "function"
    },
    {
      "inputs": [],
      "name": "renounceOwnership",
      "outputs": [],
      "stateMutability": "nonpayable",
      "type": "function"
    },
    {
      "inputs": [
        {
          "internalType": "address",
          "name": "recipient",
          "type": "address"
        },
        {
          "internalType": "string",
          "name": "metadataURI",
          "type": "string"
        },
        {
          "internalType": "bool",
          "name": "isListed",
          "type": "bool"
        },
        {
          "internalType": "uint256",
          "name": "salePrice",
          "type": "uint256"
        }
      ],
      "name": "safeMint",
      "outputs": [],
      "stateMutability": "nonpayable",
      "type": "function"
    },
    {
      "inputs": [
        {
          "internalType": "address",
          "name": "from",
          "type": "address"
        },
        {
          "internalType": "address",
          "name": "to",
          "type": "address"
        },
        {
          "internalType": "uint256",
          "name": "tokenId",
          "type": "uint256"
        }
      ],
      "name": "safeTransferFrom",
      "outputs": [],
      "stateMutability": "nonpayable",
      "type": "function"
    },
    {
      "inputs": [
        {
          "internalType": "address",
          "name": "from",
          "type": "address"
        },
        {
          "internalType": "address",
          "name": "to",
          "type": "address"
        },
        {
          "internalType": "uint256",
          "name": "tokenId",
          "type": "uint256"
        },
        {
          "internalType": "bytes",
          "name": "data",
          "type": "bytes"
        }
      ],
      "name": "safeTransferFrom",
      "outputs": [],
      "stateMutability": "nonpayable",
      "type": "function"
    },
    {
      "inputs": [
        {
          "internalType": "address",
          "name": "operator",
          "type": "address"
        },
        {
          "internalType": "bool",
          "name": "approved",
          "type": "bool"
        }
      ],
      "name": "setApprovalForAll",
      "outputs": [],
      "stateMutability": "nonpayable",
      "type": "function"
    },
    {
      "inputs": [
        {
          "internalType": "bytes4",
          "name": "interfaceId",
          "type": "bytes4"
        }
      ],
      "name": "supportsInterface",
      "outputs": [
        {
          "internalType": "bool",
          "name": "",
          "type": "bool"
        }
      ],
      "stateMutability": "view",
      "type": "function"
    },
    {
      "inputs": [],
      "name": "symbol",
      "outputs": [
        {
          "internalType": "string",
          "name": "",
          "type": "string"
        }
      ],
      "stateMutability": "view",
      "type": "function"
    },
    {
      "inputs": [
        {
          "internalType": "uint256",
          "name": "index",
          "type": "uint256"
        }
      ],
      "name": "tokenByIndex",
      "outputs": [
        {
          "internalType": "uint256",
          "name": "",
          "type": "uint256"
        }
      ],
      "stateMutability": "view",
      "type": "function"
    },
    {
      "inputs": [
        {
          "internalType": "address",
          "name": "owner",
          "type": "address"
        },
        {
          "internalType": "uint256",
          "name": "index",
          "type": "uint256"
        }
      ],
      "name": "tokenOfOwnerByIndex",
      "outputs": [
        {
          "internalType": "uint256",
          "name": "",
          "type": "uint256"
        }
      ],
      "stateMutability": "view",
      "type": "function"
    },
    {
      "inputs": [
        {
          "internalType": "uint256",
          "name": "tokenId",
          "type": "uint256"
        }
      ],
      "name": "tokenURI",
      "outputs": [
        {
          "internalType": "string",
          "name": "",
          "type": "string"
        }
      ],
      "stateMutability": "view",
      "type": "function"
    },
    {
      "inputs": [
        {
          "internalType": "address",
          "name": "owner",
          "type": "address"
        }
      ],
      "name": "tokensOfOwner",
      "outputs": [
        {
          "internalType": "uint256[]",
          "name": "",
          "type": "uint256[]"
        },
        {
          "internalType": "string[]",
          "name": "",
          "type": "string[]"
        }
      ],
      "stateMutability": "view",
      "type": "function"
    },
    {
      "inputs": [],
      "name": "totalSupply",
      "outputs": [
        {
          "internalType": "uint256",
          "name": "",
          "type": "uint256"
        }
      ],
      "stateMutability": "view",
      "type": "function"
    },
    {
      "inputs": [
        {
          "internalType": "address",
          "name": "from",
          "type": "address"
        },
        {
          "internalType": "address",
          "name": "to",
          "type": "address"
        },
        {
          "internalType": "uint256",
          "name": "tokenId",
          "type": "uint256"
        }
      ],
      "name": "transferFrom",
      "outputs": [],
      "stateMutability": "nonpayable",
      "type": "function"
    },
    {
      "inputs": [
        {
          "internalType": "address",
          "name": "newOwner",
          "type": "address"
        }
      ],
      "name": "transferOwnership",
      "outputs": [],
      "stateMutability": "nonpayable",
      "type": "function"
    }
  ],
  "bytecode": "0x60806040523480156200001157600080fd5b5060405162004900380380620049008339818101604052810190620000379190620002d1565b806040518060400160405280601381526020017f456e7669726f6e6d656e74616c437265646974000000000000000000000000008152506040518060400160405280600381526020017f45435200000000000000000000000000000000000000000000000000000000008152508160009081620000b591906200057d565b508060019081620000c791906200057d565b505050600073ffffffffffffffffffffffffffffffffffffffff168173ffffffffffffffffffffffffffffffffffffffff16036200013f5760006040517f1e4fbdf700000000000000000000000000000000000000000000000000000000815260040162000136919062000675565b60405180910390fd5b6200015081620001a160201b60201c565b5033601060006101000a81548173ffffffffffffffffffffffffffffffffffffffff021916908373ffffffffffffffffffffffffffffffffffffffff1602179055506000600c819055505062000692565b6000600b60009054906101000a900473ffffffffffffffffffffffffffffffffffffffff16905081600b60006101000a81548173ffffffffffffffffffffffffffffffffffffffff021916908373ffffffffffffffffffffffffffffffffffffffff1602179055508173ffffffffffffffffffffffffffffffffffffffff168173ffffffffffffffffffffffffffffffffffffffff167f8be0079c531659141344cd1fd0a4f28419497f9722a3daafe3b4186f6b6457e060405160405180910390a35050565b600080fd5b600073ffffffffffffffffffffffffffffffffffffffff82169050919050565b600062000299826200026c565b9050919050565b620002ab816200028c565b8114620002b757600080fd5b50565b600081519050620002cb81620002a0565b92915050565b600060208284031215620002ea57620002e962000267565b5b6000620002fa84828501620002ba565b91505092915050565b600081519050919050565b7f4e487b7100000000000000000000000000000000000000000000000000000000600052604160045260246000fd5b7f4e487b7100000000000000000000000000000000000000000000000000000000600052602260045260246000fd5b600060028204905060018216806200038557607f821691505b6020821081036200039b576200039a6200033d565b5b50919050565b60008190508160005260206000209050919050565b60006020601f8301049050919050565b600082821b905092915050565b600060088302620004057fffffffffffffffffffffffffffffffffffffffffffffffffffffffffffffffff82620003c6565b620004118683620003c6565b95508019841693508086168417925050509392505050565b6000819050919050565b6000819050919050565b60006200045e62000458620004528462000429565b62000433565b62000429565b9050919050565b6000819050919050565b6200047a836200043d565b62000492620004898262000465565b848454620003d3565b825550505050565b600090565b620004a96200049a565b620004b68184846200046f565b505050565b5b81811015620004de57620004d26000826200049f565b600181019050620004bc565b5050565b601f8211156200052d57620004f781620003a1565b6200050284620003b6565b8101602085101562000512578190505b6200052a6200052185620003b6565b830182620004bb565b50505b505050565b600082821c905092915050565b6000620005526000198460080262000532565b1980831691505092915050565b60006200056d83836200053f565b9150826002028217905092915050565b620005888262000303565b67ffffffffffffffff811115620005a457620005a36200030e565b5b620005b082546200036c565b620005bd828285620004e2565b600060209050601f831160018114620005f55760008415620005e0578287015190505b620005ec85826200055f565b8655506200065c565b601f1984166200060586620003a1565b60005b828110156200062f5784890151825560018201915060208501945060208101905062000608565b868310156200064f57848901516200064b601f8916826200053f565b8355505b6001600288020188555050505b505050505050565b6200066f816200028c565b82525050565b60006020820190506200068c600083018462000664565b92915050565b61425e80620006a26000396000f3fe60806040526004361061019c5760003560e01c8063715018a6116100ec578063b88d4fde1161008a578063e985e9c511610064578063e985e9c5146105f2578063ee8824891461062f578063f2fde38b14610658578063f72591b7146106815761019c565b8063b88d4fde14610563578063c87b56dd1461058c578063e8cdea11146105c95761019c565b80638da5cb5b116100c65780638da5cb5b146104b757806395d89b41146104e2578063a22cb4651461050d578063a50d9983146105365761019c565b8063715018a6146104465780637211dde41461045d5780638462151c146104795761019c565b806323b872dd1161015957806342966c681161013357806342966c68146103665780634f6ccce71461038f5780636352211e146103cc57806370a08231146104095761019c565b806323b872dd146102d75780632f745c591461030057806342842e0e1461033d5761019c565b806301ffc9a7146101a157806306fdde03146101de578063081812fc14610209578063095ea7b31461024657806318160ddd1461026f57806318eef3951461029a575b600080fd5b3480156101ad57600080fd5b506101c860048036038101906101c39190613095565b6106aa565b6040516101d591906130dd565b60405180910390f35b3480156101ea57600080fd5b506101f36106bc565b6040516102009190613188565b60405180910390f35b34801561021557600080fd5b50610230600480360381019061022b91906131e0565b61074e565b60405161023d919061324e565b60405180910390f35b34801561025257600080fd5b5061026d60048036038101906102689190613295565b61076a565b005b34801561027b57600080fd5b50610284610780565b60405161029191906132e4565b60405180910390f35b3480156102a657600080fd5b506102c160048036038101906102bc91906131e0565b61078d565b6040516102ce91906132e4565b60405180910390f35b3480156102e357600080fd5b506102fe60048036038101906102f991906132ff565b61080a565b005b34801561030c57600080fd5b5061032760048036038101906103229190613295565b61090c565b60405161033491906132e4565b60405180910390f35b34801561034957600080fd5b50610364600480360381019061035f91906132ff565b6109b5565b005b34801561037257600080fd5b5061038d600480360381019061038891906131e0565b6109d5565b005b34801561039b57600080fd5b506103b660048036038101906103b191906131e0565b610a1f565b6040516103c391906132e4565b60405180910390f35b3480156103d857600080fd5b506103f360048036038101906103ee91906131e0565b610a95565b604051610400919061324e565b60405180910390f35b34801561041557600080fd5b50610430600480360381019061042b9190613352565b610aa7565b60405161043d91906132e4565b60405180910390f35b34801561045257600080fd5b5061045b610b61565b005b610477600480360381019061047291906131e0565b610b75565b005b34801561048557600080fd5b506104a0600480360381019061049b9190613352565b610d94565b6040516104ae929190613549565b60405180910390f35b3480156104c357600080fd5b506104cc610f72565b6040516104d9919061324e565b60405180910390f35b3480156104ee57600080fd5b506104f7610f9c565b6040516105049190613188565b60405180910390f35b34801561051957600080fd5b50610534600480360381019061052f91906135ac565b61102e565b005b34801561054257600080fd5b5061054b611044565b60405161055a939291906135ec565b60405180910390f35b34801561056f57600080fd5b5061058a6004803603810190610585919061376d565b6112b9565b005b34801561059857600080fd5b506105b360048036038101906105ae91906131e0565b6112d6565b6040516105c09190613188565b60405180910390f35b3480156105d557600080fd5b506105f060048036038101906105eb91906131e0565b6112e8565b005b3480156105fe57600080fd5b50610619600480360381019061061491906137f0565b6113ba565b60405161062691906130dd565b60405180910390f35b34801561063b57600080fd5b5061065660048036038101906106519190613830565b61144e565b005b34801561066457600080fd5b5061067f600480360381019061067a9190613352565b611544565b005b34801561068d57600080fd5b506106a860048036038101906106a39190613911565b6115ca565b005b60006106b5826115dc565b9050919050565b6060600080546106cb906139c3565b80601f01602080910402602001604051908101604052809291908181526020018280546106f7906139c3565b80156107445780601f1061071957610100808354040283529160200191610744565b820191906000526020600020905b81548152906001019060200180831161072757829003601f168201915b5050505050905090565b60006107598261163d565b50610763826116c5565b9050919050565b61077c8282610777611702565b61170a565b5050565b6000600880549050905090565b6000600e600083815260200190815260200160002060009054906101000a900460ff166107ef576040517f08c379a00000000000000000000000000000000000000000000000000000000081526004016107e690613a40565b60405180910390fd5b600d6000838152602001908152602001600020549050919050565b600073ffffffffffffffffffffffffffffffffffffffff168273ffffffffffffffffffffffffffffffffffffffff160361087c5760006040517f64a0ae92000000000000000000000000000000000000000000000000000000008152600401610873919061324e565b60405180910390fd5b6000610890838361088b611702565b61171c565b90508373ffffffffffffffffffffffffffffffffffffffff168173ffffffffffffffffffffffffffffffffffffffff1614610906578382826040517f64283d7b0000000000000000000000000000000000000000000000000000000081526004016108fd93929190613a60565b60405180910390fd5b50505050565b600061091783610aa7565b821061095c5782826040517fa57d13dc000000000000000000000000000000000000000000000000000000008152600401610953929190613a97565b60405180910390fd5b600660008473ffffffffffffffffffffffffffffffffffffffff1673ffffffffffffffffffffffffffffffffffffffff168152602001908152602001600020600083815260200190815260200160002054905092915050565b6109d0838383604051806020016040528060008152506112b9565b505050565b6109dd611732565b6109e6816117b9565b6109ef8161183f565b807f0c526103b8f47af5516191d0c89a598755bd00faa211a3cb52e4c2cc782f7fe260405160405180910390a250565b6000610a29610780565b8210610a6f576000826040517fa57d13dc000000000000000000000000000000000000000000000000000000008152600401610a66929190613a97565b60405180910390fd5b60088281548110610a8357610a82613ac0565b5b90600052602060002001549050919050565b6000610aa08261163d565b9050919050565b60008073ffffffffffffffffffffffffffffffffffffffff168273ffffffffffffffffffffffffffffffffffffffff1603610b1a5760006040517f89c62b64000000000000000000000000000000000000000000000000000000008152600401610b11919061324e565b60405180910390fd5b600360008373ffffffffffffffffffffffffffffffffffffffff1673ffffffffffffffffffffffffffffffffffffffff168152602001908152602001600020549050919050565b610b69611732565b610b73600061190a565b565b600e600082815260200190815260200160002060009054906101000a900460ff16610bd5576040517f08c379a0000000000000000000000000000000000000000000000000000000008152600401610bcc90613b3b565b60405180910390fd5b6000600d600083815260200190815260200160002054905080341015610c30576040517f08c379a0000000000000000000000000000000000000000000000000000000008152600401610c2790613ba7565b60405180910390fd5b60006064600a83610c419190613bf6565b610c4b9190613c67565b905060008183610c5b9190613c98565b9050601060009054906101000a900473ffffffffffffffffffffffffffffffffffffffff1673ffffffffffffffffffffffffffffffffffffffff166108fc839081150290604051600060405180830381858888f19350505050158015610cc5573d6000803e3d6000fd5b50610ccf84610a95565b73ffffffffffffffffffffffffffffffffffffffff166108fc829081150290604051600060405180830381858888f19350505050158015610d14573d6000803e3d6000fd5b50610d28610d2185610a95565b33866119d0565b6000600e600086815260200190815260200160002060006101000a81548160ff021916908315150217905550837f5de13defa3534de0567d51e62e997235f1c1e8ddc82289aeaca94516a358d5393385604051610d86929190613a97565b60405180910390a250505050565b6060806000610da284610aa7565b905060008103610e4f57600067ffffffffffffffff811115610dc757610dc6613642565b5b604051908082528060200260200182016040528015610df55781602001602082028036833780820191505090505b50600067ffffffffffffffff811115610e1157610e10613642565b5b604051908082528060200260200182016040528015610e4457816020015b6060815260200190600190039081610e2f5790505b509250925050610f6d565b60008167ffffffffffffffff811115610e6b57610e6a613642565b5b604051908082528060200260200182016040528015610e995781602001602082028036833780820191505090505b50905060008267ffffffffffffffff811115610eb857610eb7613642565b5b604051908082528060200260200182016040528015610eeb57816020015b6060815260200190600190039081610ed65790505b50905060005b83811015610f62576000610f05888361090c565b905080848381518110610f1b57610f1a613ac0565b5b602002602001018181525050610f30816112d6565b838381518110610f4357610f42613ac0565b5b6020026020010181905250508080610f5a90613ccc565b915050610ef1565b508181945094505050505b915091565b6000600b60009054906101000a900473ffffffffffffffffffffffffffffffffffffffff16905090565b606060018054610fab906139c3565b80601f0160208091040260200160405190810160405280929190818152602001828054610fd7906139c3565b80156110245780601f10610ff957610100808354040283529160200191611024565b820191906000526020600020905b81548152906001019060200180831161100757829003601f168201915b5050505050905090565b611040611039611702565b8383611b3d565b5050565b60608060606000600f8054905090506000805b828110156110c557600e6000600f838154811061107757611076613ac0565b5b9060005260206000200154815260200190815260200160002060009054906101000a900460ff16156110b25781806110ae90613ccc565b9250505b80806110bd90613ccc565b915050611057565b5060008167ffffffffffffffff8111156110e2576110e1613642565b5b6040519080825280602002602001820160405280156111105781602001602082028036833780820191505090505b50905060008267ffffffffffffffff81111561112f5761112e613642565b5b60405190808252806020026020018201604052801561116257816020015b606081526020019060019003908161114d5790505b50905060008367ffffffffffffffff81111561118157611180613642565b5b6040519080825280602002602001820160405280156111af5781602001602082028036833780820191505090505b5090506000805b868110156112a4576000600f82815481106111d4576111d3613ac0565b5b90600052602060002001549050600e600082815260200190815260200160002060009054906101000a900460ff1615611290578086848151811061121b5761121a613ac0565b5b602002602001018181525050611230816112d6565b85848151811061124357611242613ac0565b5b6020026020010181905250600d60008281526020019081526020016000205484848151811061127557611274613ac0565b5b602002602001018181525050828061128c90613ccc565b9350505b50808061129c90613ccc565b9150506111b6565b50838383985098509850505050505050909192565b6112c484848461080a565b6112d084848484611cac565b50505050565b60606112e182611e63565b9050919050565b3373ffffffffffffffffffffffffffffffffffffffff1661130882610a95565b73ffffffffffffffffffffffffffffffffffffffff161461135e576040517f08c379a000000000000000000000000000000000000000000000000000000000815260040161135590613d86565b60405180910390fd5b6000600e600083815260200190815260200160002060006101000a81548160ff021916908315150217905550807f9b7b4b4e6f50c301ea30ddefa95949fc9175bdb84ce35fd823bc4486d879ef4a60405160405180910390a250565b6000600560008473ffffffffffffffffffffffffffffffffffffffff1673ffffffffffffffffffffffffffffffffffffffff16815260200190815260200160002060008373ffffffffffffffffffffffffffffffffffffffff1673ffffffffffffffffffffffffffffffffffffffff16815260200190815260200160002060009054906101000a900460ff16905092915050565b3373ffffffffffffffffffffffffffffffffffffffff1661146e83610a95565b73ffffffffffffffffffffffffffffffffffffffff16146114c4576040517f08c379a00000000000000000000000000000000000000000000000000000000081526004016114bb90613e18565b60405180910390fd5b6001600e600084815260200190815260200160002060006101000a81548160ff02191690831515021790555080600d600084815260200190815260200160002081905550817f3491649a16c326ca305ed14319c0106222d41417a0c19ec2ced6ec98e61582498260405161153891906132e4565b60405180910390a25050565b61154c611732565b600073ffffffffffffffffffffffffffffffffffffffff168173ffffffffffffffffffffffffffffffffffffffff16036115be5760006040517f1e4fbdf70000000000000000000000000000000000000000000000000000000081526004016115b5919061324e565b60405180910390fd5b6115c78161190a565b50565b6115d684848484611f76565b50505050565b6000634906490660e01b7bffffffffffffffffffffffffffffffffffffffffffffffffffffffff1916827bffffffffffffffffffffffffffffffffffffffffffffffffffffffff1916148061163657506116358261206f565b5b9050919050565b600080611649836120e9565b9050600073ffffffffffffffffffffffffffffffffffffffff168173ffffffffffffffffffffffffffffffffffffffff16036116bc57826040517f7e2732890000000000000000000000000000000000000000000000000000000081526004016116b391906132e4565b60405180910390fd5b80915050919050565b60006004600083815260200190815260200160002060009054906101000a900473ffffffffffffffffffffffffffffffffffffffff169050919050565b600033905090565b6117178383836001612126565b505050565b60006117298484846122eb565b90509392505050565b61173a611702565b73ffffffffffffffffffffffffffffffffffffffff16611758610f72565b73ffffffffffffffffffffffffffffffffffffffff16146117b75761177b611702565b6040517f118cdaa70000000000000000000000000000000000000000000000000000000081526004016117ae919061324e565b60405180910390fd5b565b60006117c8600083600061171c565b9050600073ffffffffffffffffffffffffffffffffffffffff168173ffffffffffffffffffffffffffffffffffffffff160361183b57816040517f7e27328900000000000000000000000000000000000000000000000000000000815260040161183291906132e4565b60405180910390fd5b5050565b60005b600f805490508110156119065781600f828154811061186457611863613ac0565b5b9060005260206000200154036118f357600f6001600f805490506118889190613c98565b8154811061189957611898613ac0565b5b9060005260206000200154600f82815481106118b8576118b7613ac0565b5b9060005260206000200181905550600f8054806118d8576118d7613e38565b5b60019003818190600052602060002001600090559055611906565b80806118fe90613ccc565b915050611842565b5050565b6000600b60009054906101000a900473ffffffffffffffffffffffffffffffffffffffff16905081600b60006101000a81548173ffffffffffffffffffffffffffffffffffffffff021916908373ffffffffffffffffffffffffffffffffffffffff1602179055508173ffffffffffffffffffffffffffffffffffffffff168173ffffffffffffffffffffffffffffffffffffffff167f8be0079c531659141344cd1fd0a4f28419497f9722a3daafe3b4186f6b6457e060405160405180910390a35050565b600073ffffffffffffffffffffffffffffffffffffffff168273ffffffffffffffffffffffffffffffffffffffff1603611a425760006040517f64a0ae92000000000000000000000000000000000000000000000000000000008152600401611a39919061324e565b60405180910390fd5b6000611a508383600061171c565b9050600073ffffffffffffffffffffffffffffffffffffffff168173ffffffffffffffffffffffffffffffffffffffff1603611ac357816040517f7e273289000000000000000000000000000000000000000000000000000000008152600401611aba91906132e4565b60405180910390fd5b8373ffffffffffffffffffffffffffffffffffffffff168173ffffffffffffffffffffffffffffffffffffffff1614611b37578382826040517f64283d7b000000000000000000000000000000000000000000000000000000008152600401611b2e93929190613a60565b60405180910390fd5b50505050565b600073ffffffffffffffffffffffffffffffffffffffff168273ffffffffffffffffffffffffffffffffffffffff1603611bae57816040517f5b08ba18000000000000000000000000000000000000000000000000000000008152600401611ba5919061324e565b60405180910390fd5b80600560008573ffffffffffffffffffffffffffffffffffffffff1673ffffffffffffffffffffffffffffffffffffffff16815260200190815260200160002060008473ffffffffffffffffffffffffffffffffffffffff1673ffffffffffffffffffffffffffffffffffffffff16815260200190815260200160002060006101000a81548160ff0219169083151502179055508173ffffffffffffffffffffffffffffffffffffffff168373ffffffffffffffffffffffffffffffffffffffff167f17307eab39ab6107e8899845ad3d59bd9653f200f220920489ca2b5937696c3183604051611c9f91906130dd565b60405180910390a3505050565b60008373ffffffffffffffffffffffffffffffffffffffff163b1115611e5d578273ffffffffffffffffffffffffffffffffffffffff1663150b7a02611cf0611702565b8685856040518563ffffffff1660e01b8152600401611d129493929190613ebc565b6020604051808303816000875af1925050508015611d4e57506040513d601f19601f82011682018060405250810190611d4b9190613f1d565b60015b611dd2573d8060008114611d7e576040519150601f19603f3d011682016040523d82523d6000602084013e611d83565b606091505b506000815103611dca57836040517f64a0ae92000000000000000000000000000000000000000000000000000000008152600401611dc1919061324e565b60405180910390fd5b805181602001fd5b63150b7a0260e01b7bffffffffffffffffffffffffffffffffffffffffffffffffffffffff1916817bffffffffffffffffffffffffffffffffffffffffffffffffffffffff191614611e5b57836040517f64a0ae92000000000000000000000000000000000000000000000000000000008152600401611e52919061324e565b60405180910390fd5b505b50505050565b6060611e6e8261163d565b506000600a60008481526020019081526020016000208054611e8f906139c3565b80601f0160208091040260200160405190810160405280929190818152602001828054611ebb906139c3565b8015611f085780601f10611edd57610100808354040283529160200191611f08565b820191906000526020600020905b815481529060010190602001808311611eeb57829003601f168201915b505050505090506000611f19612408565b90506000815103611f2e578192505050611f71565b600082511115611f63578082604051602001611f4b929190613f86565b60405160208183030381529060405292505050611f71565b611f6c8461241f565b925050505b919050565b6000600c6000815480929190611f8b90613ccc565b919050559050611f9b8582612488565b611fa581856124a6565b600f8190806001815401808255809150506001900390600052602060002001600090919091909150558215612019576001600e600083815260200190815260200160002060006101000a81548160ff02191690831515021790555081600d6000838152602001908152602001600020819055505b808573ffffffffffffffffffffffffffffffffffffffff167fdf92894dc4675a7333caa5903b69cf5d8e8ec0d3f361c88207b6688e525703bb866040516120609190613188565b60405180910390a35050505050565b60007f780e9d63000000000000000000000000000000000000000000000000000000007bffffffffffffffffffffffffffffffffffffffffffffffffffffffff1916827bffffffffffffffffffffffffffffffffffffffffffffffffffffffff191614806120e257506120e182612502565b5b9050919050565b60006002600083815260200190815260200160002060009054906101000a900473ffffffffffffffffffffffffffffffffffffffff169050919050565b808061215f5750600073ffffffffffffffffffffffffffffffffffffffff168273ffffffffffffffffffffffffffffffffffffffff1614155b1561229357600061216f8461163d565b9050600073ffffffffffffffffffffffffffffffffffffffff168373ffffffffffffffffffffffffffffffffffffffff16141580156121da57508273ffffffffffffffffffffffffffffffffffffffff168173ffffffffffffffffffffffffffffffffffffffff1614155b80156121ed57506121eb81846113ba565b155b1561222f57826040517fa9fbf51f000000000000000000000000000000000000000000000000000000008152600401612226919061324e565b60405180910390fd5b811561229157838573ffffffffffffffffffffffffffffffffffffffff168273ffffffffffffffffffffffffffffffffffffffff167f8c5be1e5ebec7d5bd14f71427d1e84f3dd0314c0f7b2291e5b200ac8c7c3b92560405160405180910390a45b505b836004600085815260200190815260200160002060006101000a81548173ffffffffffffffffffffffffffffffffffffffff021916908373ffffffffffffffffffffffffffffffffffffffff16021790555050505050565b6000806122f98585856125e4565b9050600073ffffffffffffffffffffffffffffffffffffffff168173ffffffffffffffffffffffffffffffffffffffff160361233d57612338846127fe565b61237c565b8473ffffffffffffffffffffffffffffffffffffffff168173ffffffffffffffffffffffffffffffffffffffff161461237b5761237a8185612847565b5b5b600073ffffffffffffffffffffffffffffffffffffffff168573ffffffffffffffffffffffffffffffffffffffff16036123be576123b9846129a8565b6123fd565b8473ffffffffffffffffffffffffffffffffffffffff168173ffffffffffffffffffffffffffffffffffffffff16146123fc576123fb8585612a79565b5b5b809150509392505050565b606060405180602001604052806000815250905090565b606061242a8261163d565b506000612435612408565b905060008151116124555760405180602001604052806000815250612480565b8061245f84612b04565b604051602001612470929190613f86565b6040516020818303038152906040525b915050919050565b6124a2828260405180602001604052806000815250612bd2565b5050565b80600a600084815260200190815260200160002090816124c69190614156565b507ff8e1a15aba9398e019f0b49df1a4fde98ee17ae345cb5f6b5e2c27f5033e8ce7826040516124f691906132e4565b60405180910390a15050565b60007f80ac58cd000000000000000000000000000000000000000000000000000000007bffffffffffffffffffffffffffffffffffffffffffffffffffffffff1916827bffffffffffffffffffffffffffffffffffffffffffffffffffffffff191614806125cd57507f5b5e139f000000000000000000000000000000000000000000000000000000007bffffffffffffffffffffffffffffffffffffffffffffffffffffffff1916827bffffffffffffffffffffffffffffffffffffffffffffffffffffffff1916145b806125dd57506125dc82612bee565b5b9050919050565b6000806125f0846120e9565b9050600073ffffffffffffffffffffffffffffffffffffffff168373ffffffffffffffffffffffffffffffffffffffff161461263257612631818486612c58565b5b600073ffffffffffffffffffffffffffffffffffffffff168173ffffffffffffffffffffffffffffffffffffffff16146126c357612674600085600080612126565b6001600360008373ffffffffffffffffffffffffffffffffffffffff1673ffffffffffffffffffffffffffffffffffffffff168152602001908152602001600020600082825403925050819055505b600073ffffffffffffffffffffffffffffffffffffffff168573ffffffffffffffffffffffffffffffffffffffff1614612746576001600360008773ffffffffffffffffffffffffffffffffffffffff1673ffffffffffffffffffffffffffffffffffffffff168152602001908152602001600020600082825401925050819055505b846002600086815260200190815260200160002060006101000a81548173ffffffffffffffffffffffffffffffffffffffff021916908373ffffffffffffffffffffffffffffffffffffffff160217905550838573ffffffffffffffffffffffffffffffffffffffff168273ffffffffffffffffffffffffffffffffffffffff167fddf252ad1be2c89b69c2b068fc378daa952ba7f163c4a11628f55a4df523b3ef60405160405180910390a4809150509392505050565b6008805490506009600083815260200190815260200160002081905550600881908060018154018082558091505060019003906000526020600020016000909190919091505550565b600061285283610aa7565b9050600060076000848152602001908152602001600020549050818114612937576000600660008673ffffffffffffffffffffffffffffffffffffffff1673ffffffffffffffffffffffffffffffffffffffff168152602001908152602001600020600084815260200190815260200160002054905080600660008773ffffffffffffffffffffffffffffffffffffffff1673ffffffffffffffffffffffffffffffffffffffff168152602001908152602001600020600084815260200190815260200160002081905550816007600083815260200190815260200160002081905550505b6007600084815260200190815260200160002060009055600660008573ffffffffffffffffffffffffffffffffffffffff1673ffffffffffffffffffffffffffffffffffffffff16815260200190815260200160002060008381526020019081526020016000206000905550505050565b600060016008805490506129bc9190613c98565b90506000600960008481526020019081526020016000205490506000600883815481106129ec576129eb613ac0565b5b906000526020600020015490508060088381548110612a0e57612a0d613ac0565b5b906000526020600020018190555081600960008381526020019081526020016000208190555060096000858152602001908152602001600020600090556008805480612a5d57612a5c613e38565b5b6001900381819060005260206000200160009055905550505050565b60006001612a8684610aa7565b612a909190613c98565b905081600660008573ffffffffffffffffffffffffffffffffffffffff1673ffffffffffffffffffffffffffffffffffffffff168152602001908152602001600020600083815260200190815260200160002081905550806007600084815260200190815260200160002081905550505050565b606060006001612b1384612d1c565b01905060008167ffffffffffffffff811115612b3257612b31613642565b5b6040519080825280601f01601f191660200182016040528015612b645781602001600182028036833780820191505090505b509050600082602001820190505b600115612bc7578080600190039150507f3031323334353637383961626364656600000000000000000000000000000000600a86061a8153600a8581612bbb57612bba613c38565b5b04945060008503612b72575b819350505050919050565b612bdc8383612e6f565b612be96000848484611cac565b505050565b60007f01ffc9a7000000000000000000000000000000000000000000000000000000007bffffffffffffffffffffffffffffffffffffffffffffffffffffffff1916827bffffffffffffffffffffffffffffffffffffffffffffffffffffffff1916149050919050565b612c63838383612f68565b612d1757600073ffffffffffffffffffffffffffffffffffffffff168373ffffffffffffffffffffffffffffffffffffffff1603612cd857806040517f7e273289000000000000000000000000000000000000000000000000000000008152600401612ccf91906132e4565b60405180910390fd5b81816040517f177e802f000000000000000000000000000000000000000000000000000000008152600401612d0e929190613a97565b60405180910390fd5b505050565b600080600090507a184f03e93ff9f4daa797ed6e38ed64bf6a1f0100000000000000008310612d7a577a184f03e93ff9f4daa797ed6e38ed64bf6a1f0100000000000000008381612d7057612d6f613c38565b5b0492506040810190505b6d04ee2d6d415b85acef81000000008310612db7576d04ee2d6d415b85acef81000000008381612dad57612dac613c38565b5b0492506020810190505b662386f26fc100008310612de657662386f26fc100008381612ddc57612ddb613c38565b5b0492506010810190505b6305f5e1008310612e0f576305f5e1008381612e0557612e04613c38565b5b0492506008810190505b6127108310612e34576127108381612e2a57612e29613c38565b5b0492506004810190505b60648310612e575760648381612e4d57612e4c613c38565b5b0492506002810190505b600a8310612e66576001810190505b80915050919050565b600073ffffffffffffffffffffffffffffffffffffffff168273ffffffffffffffffffffffffffffffffffffffff1603612ee15760006040517f64a0ae92000000000000000000000000000000000000000000000000000000008152600401612ed8919061324e565b60405180910390fd5b6000612eef8383600061171c565b9050600073ffffffffffffffffffffffffffffffffffffffff168173ffffffffffffffffffffffffffffffffffffffff1614612f635760006040517f73c6ac6e000000000000000000000000000000000000000000000000000000008152600401612f5a919061324e565b60405180910390fd5b505050565b60008073ffffffffffffffffffffffffffffffffffffffff168373ffffffffffffffffffffffffffffffffffffffff161415801561302057508273ffffffffffffffffffffffffffffffffffffffff168473ffffffffffffffffffffffffffffffffffffffff161480612fe15750612fe084846113ba565b5b8061301f57508273ffffffffffffffffffffffffffffffffffffffff16613007836116c5565b73ffffffffffffffffffffffffffffffffffffffff16145b5b90509392505050565b6000604051905090565b600080fd5b600080fd5b60007fffffffff0000000000000000000000000000000000000000000000000000000082169050919050565b6130728161303d565b811461307d57600080fd5b50565b60008135905061308f81613069565b92915050565b6000602082840312156130ab576130aa613033565b5b60006130b984828501613080565b91505092915050565b60008115159050919050565b6130d7816130c2565b82525050565b60006020820190506130f260008301846130ce565b92915050565b600081519050919050565b600082825260208201905092915050565b60005b83811015613132578082015181840152602081019050613117565b60008484015250505050565b6000601f19601f8301169050919050565b600061315a826130f8565b6131648185613103565b9350613174818560208601613114565b61317d8161313e565b840191505092915050565b600060208201905081810360008301526131a2818461314f565b905092915050565b6000819050919050565b6131bd816131aa565b81146131c857600080fd5b50565b6000813590506131da816131b4565b92915050565b6000602082840312156131f6576131f5613033565b5b6000613204848285016131cb565b91505092915050565b600073ffffffffffffffffffffffffffffffffffffffff82169050919050565b60006132388261320d565b9050919050565b6132488161322d565b82525050565b6000602082019050613263600083018461323f565b92915050565b6132728161322d565b811461327d57600080fd5b50565b60008135905061328f81613269565b92915050565b600080604083850312156132ac576132ab613033565b5b60006132ba85828601613280565b92505060206132cb858286016131cb565b9150509250929050565b6132de816131aa565b82525050565b60006020820190506132f960008301846132d5565b92915050565b60008060006060848603121561331857613317613033565b5b600061332686828701613280565b935050602061333786828701613280565b9250506040613348868287016131cb565b9150509250925092565b60006020828403121561336857613367613033565b5b600061337684828501613280565b91505092915050565b600081519050919050565b600082825260208201905092915050565b6000819050602082019050919050565b6133b4816131aa565b82525050565b60006133c683836133ab565b60208301905092915050565b6000602082019050919050565b60006133ea8261337f565b6133f4818561338a565b93506133ff8361339b565b8060005b8381101561343057815161341788826133ba565b9750613422836133d2565b925050600181019050613403565b5085935050505092915050565b600081519050919050565b600082825260208201905092915050565b6000819050602082019050919050565b600082825260208201905092915050565b6000613485826130f8565b61348f8185613469565b935061349f818560208601613114565b6134a88161313e565b840191505092915050565b60006134bf838361347a565b905092915050565b6000602082019050919050565b60006134df8261343d565b6134e98185613448565b9350836020820285016134fb85613459565b8060005b85811015613537578484038952815161351885826134b3565b9450613523836134c7565b925060208a019950506001810190506134ff565b50829750879550505050505092915050565b6000604082019050818103600083015261356381856133df565b9050818103602083015261357781846134d4565b90509392505050565b613589816130c2565b811461359457600080fd5b50565b6000813590506135a681613580565b92915050565b600080604083850312156135c3576135c2613033565b5b60006135d185828601613280565b92505060206135e285828601613597565b9150509250929050565b6000606082019050818103600083015261360681866133df565b9050818103602083015261361a81856134d4565b9050818103604083015261362e81846133df565b9050949350505050565b600080fd5b600080fd5b7f4e487b7100000000000000000000000000000000000000000000000000000000600052604160045260246000fd5b61367a8261313e565b810181811067ffffffffffffffff8211171561369957613698613642565b5b80604052505050565b60006136ac613029565b90506136b88282613671565b919050565b600067ffffffffffffffff8211156136d8576136d7613642565b5b6136e18261313e565b9050602081019050919050565b82818337600083830152505050565b600061371061370b846136bd565b6136a2565b90508281526020810184848401111561372c5761372b61363d565b5b6137378482856136ee565b509392505050565b600082601f83011261375457613753613638565b5b81356137648482602086016136fd565b91505092915050565b6000806000806080858703121561378757613786613033565b5b600061379587828801613280565b94505060206137a687828801613280565b93505060406137b7878288016131cb565b925050606085013567ffffffffffffffff8111156137d8576137d7613038565b5b6137e48782880161373f565b91505092959194509250565b6000806040838503121561380757613806613033565b5b600061381585828601613280565b925050602061382685828601613280565b9150509250929050565b6000806040838503121561384757613846613033565b5b6000613855858286016131cb565b9250506020613866858286016131cb565b9150509250929050565b600067ffffffffffffffff82111561388b5761388a613642565b5b6138948261313e565b9050602081019050919050565b60006138b46138af84613870565b6136a2565b9050828152602081018484840111156138d0576138cf61363d565b5b6138db8482856136ee565b509392505050565b600082601f8301126138f8576138f7613638565b5b81356139088482602086016138a1565b91505092915050565b6000806000806080858703121561392b5761392a613033565b5b600061393987828801613280565b945050602085013567ffffffffffffffff81111561395a57613959613038565b5b613966878288016138e3565b935050604061397787828801613597565b9250506060613988878288016131cb565b91505092959194509250565b7f4e487b7100000000000000000000000000000000000000000000000000000000600052602260045260246000fd5b600060028204905060018216806139db57607f821691505b6020821081036139ee576139ed613994565b5b50919050565b7f546f6b656e206973206e6f7420666f722073616c650000000000000000000000600082015250565b6000613a2a601583613103565b9150613a35826139f4565b602082019050919050565b60006020820190508181036000830152613a5981613a1d565b9050919050565b6000606082019050613a75600083018661323f565b613a8260208301856132d5565b613a8f604083018461323f565b949350505050565b6000604082019050613aac600083018561323f565b613ab960208301846132d5565b9392505050565b7f4e487b7100000000000000000000000000000000000000000000000000000000600052603260045260246000fd5b7f546f6b656e206d75737420626520666f722073616c6500000000000000000000600082015250565b6000613b25601683613103565b9150613b3082613aef565b602082019050919050565b60006020820190508181036000830152613b5481613b18565b9050919050565b7f496e73756666696369656e742066756e64732073656e74000000000000000000600082015250565b6000613b91601783613103565b9150613b9c82613b5b565b602082019050919050565b60006020820190508181036000830152613bc081613b84565b9050919050565b7f4e487b7100000000000000000000000000000000000000000000000000000000600052601160045260246000fd5b6000613c01826131aa565b9150613c0c836131aa565b9250828202613c1a816131aa565b91508282048414831517613c3157613c30613bc7565b5b5092915050565b7f4e487b7100000000000000000000000000000000000000000000000000000000600052601260045260246000fd5b6000613c72826131aa565b9150613c7d836131aa565b925082613c8d57613c8c613c38565b5b828204905092915050565b6000613ca3826131aa565b9150613cae836131aa565b9250828203905081811115613cc657613cc5613bc7565b5b92915050565b6000613cd7826131aa565b91507fffffffffffffffffffffffffffffffffffffffffffffffffffffffffffffffff8203613d0957613d08613bc7565b5b600182019050919050565b7f4f6e6c7920746f6b656e206f776e65722063616e2072656d6f7665206974206660008201527f726f6d2073616c65000000000000000000000000000000000000000000000000602082015250565b6000613d70602883613103565b9150613d7b82613d14565b604082019050919050565b60006020820190508181036000830152613d9f81613d63565b9050919050565b7f4f6e6c7920746f6b656e206f776e65722063616e2070757420697420666f722060008201527f73616c6500000000000000000000000000000000000000000000000000000000602082015250565b6000613e02602483613103565b9150613e0d82613da6565b604082019050919050565b60006020820190508181036000830152613e3181613df5565b9050919050565b7f4e487b7100000000000000000000000000000000000000000000000000000000600052603160045260246000fd5b600081519050919050565b600082825260208201905092915050565b6000613e8e82613e67565b613e988185613e72565b9350613ea8818560208601613114565b613eb18161313e565b840191505092915050565b6000608082019050613ed1600083018761323f565b613ede602083018661323f565b613eeb60408301856132d5565b8181036060830152613efd8184613e83565b905095945050505050565b600081519050613f1781613069565b92915050565b600060208284031215613f3357613f32613033565b5b6000613f4184828501613f08565b91505092915050565b600081905092915050565b6000613f60826130f8565b613f6a8185613f4a565b9350613f7a818560208601613114565b80840191505092915050565b6000613f928285613f55565b9150613f9e8284613f55565b91508190509392505050565b60008190508160005260206000209050919050565b60006020601f8301049050919050565b600082821b905092915050565b60006008830261400c7fffffffffffffffffffffffffffffffffffffffffffffffffffffffffffffffff82613fcf565b6140168683613fcf565b95508019841693508086168417925050509392505050565b6000819050919050565b600061405361404e614049846131aa565b61402e565b6131aa565b9050919050565b6000819050919050565b61406d83614038565b6140816140798261405a565b848454613fdc565b825550505050565b600090565b614096614089565b6140a1818484614064565b505050565b5b818110156140c5576140ba60008261408e565b6001810190506140a7565b5050565b601f82111561410a576140db81613faa565b6140e484613fbf565b810160208510156140f3578190505b6141076140ff85613fbf565b8301826140a6565b50505b505050565b600082821c905092915050565b600061412d6000198460080261410f565b1980831691505092915050565b6000614146838361411c565b9150826002028217905092915050565b61415f826130f8565b67ffffffffffffffff81111561417857614177613642565b5b61418282546139c3565b61418d8282856140c9565b600060209050601f8311600181146141c057600084156141ae578287015190505b6141b8858261413a565b865550614220565b601f1984166141ce86613faa565b60005b828110156141f6578489015182556001820191506020850194506020810190506141d1565b86831015614213578489015161420f601f89168261411c565b8355505b6001600288020188555050505b50505050505056fea2646970667358221220094b6eef12812731c50a8a08c1822606bf8eecf4225f903f23ccd782cd564fb064736f6c63430008140033",
  "linkReferences": {},
  "deployedLinkReferences": {}
}